{
  "contractName": "BlockAuthVerify",
  "abi": [
    {
      "inputs": [],
      "payable": false,
      "stateMutability": "nonpayable",
      "type": "constructor"
    },
    {
      "anonymous": false,
      "inputs": [
        {
          "indexed": false,
          "internalType": "address",
          "name": "from",
          "type": "address"
        },
        {
          "indexed": false,
          "internalType": "string",
          "name": "username",
          "type": "string"
        },
        {
          "indexed": false,
          "internalType": "bool",
          "name": "success",
          "type": "bool"
        }
      ],
      "name": "NewUserAdded",
      "type": "event"
    },
    {
      "anonymous": false,
      "inputs": [
        {
          "indexed": false,
          "internalType": "address",
          "name": "from",
          "type": "address"
        },
        {
          "indexed": false,
          "internalType": "string",
          "name": "username",
          "type": "string"
        },
        {
          "indexed": false,
          "internalType": "string",
          "name": "verificationType",
          "type": "string"
        },
        {
          "indexed": false,
          "internalType": "bool",
          "name": "success",
          "type": "bool"
        }
      ],
      "name": "NewVerification",
      "type": "event"
    },
    {
      "anonymous": false,
      "inputs": [
        {
          "indexed": false,
          "internalType": "address",
          "name": "from",
          "type": "address"
        },
        {
          "indexed": false,
          "internalType": "string",
          "name": "username",
          "type": "string"
        },
        {
          "indexed": false,
          "internalType": "bool",
          "name": "success",
          "type": "bool"
        }
      ],
      "name": "UserDataUpdated",
      "type": "event"
    },
    {
      "constant": false,
      "inputs": [],
      "name": "killBlockAuth",
      "outputs": [],
      "payable": false,
      "stateMutability": "nonpayable",
      "type": "function"
    },
    {
      "constant": false,
      "inputs": [
        {
          "internalType": "string",
          "name": "username",
          "type": "string"
        },
        {
          "internalType": "string",
          "name": "block_auth_url",
          "type": "string"
        },
        {
          "internalType": "string",
          "name": "public_key",
          "type": "string"
        }
      ],
      "name": "addNewUser",
      "outputs": [
        {
          "internalType": "bool",
          "name": "",
          "type": "bool"
        }
      ],
      "payable": false,
      "stateMutability": "nonpayable",
      "type": "function"
    },
    {
      "constant": true,
      "inputs": [
        {
          "internalType": "address",
          "name": "user_address",
          "type": "address"
        }
      ],
      "name": "getUsername",
      "outputs": [
        {
          "internalType": "string",
          "name": "",
          "type": "string"
        }
      ],
      "payable": false,
      "stateMutability": "view",
      "type": "function"
    },
    {
      "constant": true,
      "inputs": [
        {
          "internalType": "string",
          "name": "username",
          "type": "string"
        }
      ],
      "name": "getAddress",
      "outputs": [
        {
          "internalType": "address",
          "name": "",
          "type": "address"
        }
      ],
      "payable": false,
      "stateMutability": "view",
      "type": "function"
    },
    {
      "constant": true,
      "inputs": [
        {
          "internalType": "string",
          "name": "username",
          "type": "string"
        }
      ],
      "name": "getBlockAuthUrl",
      "outputs": [
        {
          "internalType": "string",
          "name": "",
          "type": "string"
        }
      ],
      "payable": false,
      "stateMutability": "view",
      "type": "function"
    },
    {
      "constant": true,
      "inputs": [
        {
          "internalType": "string",
          "name": "username",
          "type": "string"
        }
      ],
      "name": "getBlockAuthPublicKey",
      "outputs": [
        {
          "internalType": "string",
          "name": "",
          "type": "string"
        }
      ],
      "payable": false,
      "stateMutability": "view",
      "type": "function"
    },
    {
      "constant": true,
      "inputs": [
        {
          "internalType": "string",
          "name": "username",
          "type": "string"
        },
        {
          "internalType": "string",
          "name": "verification_type",
          "type": "string"
        }
      ],
      "name": "getUserVerificationCount",
      "outputs": [
        {
          "internalType": "uint256",
          "name": "",
          "type": "uint256"
        }
      ],
      "payable": false,
      "stateMutability": "view",
      "type": "function"
    },
    {
      "constant": true,
      "inputs": [
        {
          "internalType": "string",
          "name": "username",
          "type": "string"
        },
        {
          "internalType": "string",
          "name": "verification_type",
          "type": "string"
        },
        {
          "internalType": "uint256",
          "name": "index",
          "type": "uint256"
        }
      ],
      "name": "getUserVerifierByIndex",
      "outputs": [
        {
          "internalType": "string",
          "name": "",
          "type": "string"
        }
      ],
      "payable": false,
      "stateMutability": "view",
      "type": "function"
    },
    {
      "constant": true,
      "inputs": [
        {
          "internalType": "string",
          "name": "username",
          "type": "string"
        },
        {
          "internalType": "string",
          "name": "verification_type",
          "type": "string"
        },
        {
          "internalType": "uint256",
          "name": "index",
          "type": "uint256"
        }
      ],
      "name": "getUserVerifiedValueByIndex",
      "outputs": [
        {
          "internalType": "string",
          "name": "",
          "type": "string"
        }
      ],
      "payable": false,
      "stateMutability": "view",
      "type": "function"
    },
    {
      "constant": false,
      "inputs": [
        {
          "internalType": "string",
          "name": "username",
          "type": "string"
        },
        {
          "internalType": "string",
          "name": "verification_type",
          "type": "string"
        },
        {
          "internalType": "string",
          "name": "verification_value",
          "type": "string"
        }
      ],
      "name": "putUserVerification",
      "outputs": [
        {
          "internalType": "bool",
          "name": "",
          "type": "bool"
        }
      ],
      "payable": false,
      "stateMutability": "nonpayable",
      "type": "function"
    },
    {
      "constant": false,
      "inputs": [
        {
          "internalType": "string",
          "name": "username",
          "type": "string"
        },
        {
          "internalType": "string",
          "name": "verification_type",
          "type": "string"
        },
        {
          "internalType": "string",
          "name": "verification_value",
          "type": "string"
        },
        {
          "internalType": "uint256",
          "name": "index",
          "type": "uint256"
        }
      ],
      "name": "putUserVerification",
      "outputs": [
        {
          "internalType": "bool",
          "name": "",
          "type": "bool"
        }
      ],
      "payable": false,
      "stateMutability": "nonpayable",
      "type": "function"
    },
    {
      "constant": false,
      "inputs": [
        {
          "internalType": "string",
          "name": "encryptedData",
          "type": "string"
        }
      ],
      "name": "setEncryptionData",
      "outputs": [
        {
          "internalType": "bool",
          "name": "",
          "type": "bool"
        }
      ],
      "payable": false,
      "stateMutability": "nonpayable",
      "type": "function"
    },
    {
      "constant": true,
      "inputs": [
        {
          "internalType": "string",
          "name": "username",
          "type": "string"
        }
      ],
      "name": "getEncryptedData",
      "outputs": [
        {
          "internalType": "string",
          "name": "",
          "type": "string"
        }
      ],
      "payable": false,
      "stateMutability": "view",
      "type": "function"
    }
  ],
  "bytecode": "0x608060405234801561001057600080fd5b50600080546001600160a01b031916331790556123c7806100326000396000f3fe608060405234801561001057600080fd5b50600436106100cf5760003560e01c80639a12b1c01161008c578063c35322c811610066578063c35322c814610952578063cbf1496214610b00578063ce43c03214610ba4578063f0b7800914610bca576100cf565b80639a12b1c01461062c5780639c1ff1af146107ee578063bf40fac114610892576100cf565b80630b2746b6146100d457806313937b4f1461020f57806317bb87f114610219578063199edbb8146103b957806349e4622c146104e45780634f363d9e14610588575b600080fd5b6101fd600480360360408110156100ea57600080fd5b810190602081018135600160201b81111561010457600080fd5b82018360208201111561011657600080fd5b803590602001918460018302840111600160201b8311171561013757600080fd5b91908080601f0160208091040260200160405190810160405280939291908181526020018383808284376000920191909152509295949360208101935035915050600160201b81111561018957600080fd5b82018360208201111561019b57600080fd5b803590602001918460018302840111600160201b831117156101bc57600080fd5b91908080601f016020809104026020016040519081016040528093929190818152602001838380828437600092019190915250929550610d7a945050505050565b60408051918252519081900360200190f35b610217610e3f565b005b6103446004803603606081101561022f57600080fd5b810190602081018135600160201b81111561024957600080fd5b82018360208201111561025b57600080fd5b803590602001918460018302840111600160201b8311171561027c57600080fd5b91908080601f0160208091040260200160405190810160405280939291908181526020018383808284376000920191909152509295949360208101935035915050600160201b8111156102ce57600080fd5b8201836020820111156102e057600080fd5b803590602001918460018302840111600160201b8311171561030157600080fd5b91908080601f0160208091040260200160405190810160405280939291908181526020018383808284376000920191909152509295505091359250610e62915050565b6040805160208082528351818301528351919283929083019185019080838360005b8381101561037e578181015183820152602001610366565b50505050905090810190601f1680156103ab5780820380516001836020036101000a031916815260200191505b509250505060405180910390f35b610344600480360360608110156103cf57600080fd5b810190602081018135600160201b8111156103e957600080fd5b8201836020820111156103fb57600080fd5b803590602001918460018302840111600160201b8311171561041c57600080fd5b91908080601f0160208091040260200160405190810160405280939291908181526020018383808284376000920191909152509295949360208101935035915050600160201b81111561046e57600080fd5b82018360208201111561048057600080fd5b803590602001918460018302840111600160201b831117156104a157600080fd5b91908080601f0160208091040260200160405190810160405280939291908181526020018383808284376000920191909152509295505091359250610ff5915050565b610344600480360360208110156104fa57600080fd5b810190602081018135600160201b81111561051457600080fd5b82018360208201111561052657600080fd5b803590602001918460018302840111600160201b8311171561054757600080fd5b91908080601f01602080910402602001604051908101604052809392919081815260200183838082843760009201919091525092955061114b945050505050565b6103446004803603602081101561059e57600080fd5b810190602081018135600160201b8111156105b857600080fd5b8201836020820111156105ca57600080fd5b803590602001918460018302840111600160201b831117156105eb57600080fd5b91908080601f016020809104026020016040519081016040528093929190818152602001838380828437600092019190915250929550611240945050505050565b6107da6004803603606081101561064257600080fd5b810190602081018135600160201b81111561065c57600080fd5b82018360208201111561066e57600080fd5b803590602001918460018302840111600160201b8311171561068f57600080fd5b91908080601f0160208091040260200160405190810160405280939291908181526020018383808284376000920191909152509295949360208101935035915050600160201b8111156106e157600080fd5b8201836020820111156106f357600080fd5b803590602001918460018302840111600160201b8311171561071457600080fd5b91908080601f0160208091040260200160405190810160405280939291908181526020018383808284376000920191909152509295949360208101935035915050600160201b81111561076657600080fd5b82018360208201111561077857600080fd5b803590602001918460018302840111600160201b8311171561079957600080fd5b91908080601f016020809104026020016040519081016040528093929190818152602001838380828437600092019190915250929550611273945050505050565b604080519115158252519081900360200190f35b6103446004803603602081101561080457600080fd5b810190602081018135600160201b81111561081e57600080fd5b82018360208201111561083057600080fd5b803590602001918460018302840111600160201b8311171561085157600080fd5b91908080601f016020809104026020016040519081016040528093929190818152602001838380828437600092019190915250929550611603945050505050565b610936600480360360208110156108a857600080fd5b810190602081018135600160201b8111156108c257600080fd5b8201836020820111156108d457600080fd5b803590602001918460018302840111600160201b831117156108f557600080fd5b91908080601f016020809104026020016040519081016040528093929190818152602001838380828437600092019190915250929550611636945050505050565b604080516001600160a01b039092168252519081900360200190f35b6107da6004803603606081101561096857600080fd5b810190602081018135600160201b81111561098257600080fd5b82018360208201111561099457600080fd5b803590602001918460018302840111600160201b831117156109b557600080fd5b91908080601f0160208091040260200160405190810160405280939291908181526020018383808284376000920191909152509295949360208101935035915050600160201b811115610a0757600080fd5b820183602082011115610a1957600080fd5b803590602001918460018302840111600160201b83111715610a3a57600080fd5b91908080601f0160208091040260200160405190810160405280939291908181526020018383808284376000920191909152509295949360208101935035915050600160201b811115610a8c57600080fd5b820183602082011115610a9e57600080fd5b803590602001918460018302840111600160201b83111715610abf57600080fd5b91908080601f0160208091040260200160405190810160405280939291908181526020018383808284376000920191909152509295506116a7945050505050565b6107da60048036036020811015610b1657600080fd5b810190602081018135600160201b811115610b3057600080fd5b820183602082011115610b4257600080fd5b803590602001918460018302840111600160201b83111715610b6357600080fd5b91908080601f016020809104026020016040519081016040528093929190818152602001838380828437600092019190915250929550611a99945050505050565b61034460048036036020811015610bba57600080fd5b50356001600160a01b0316611cd7565b6107da60048036036080811015610be057600080fd5b810190602081018135600160201b811115610bfa57600080fd5b820183602082011115610c0c57600080fd5b803590602001918460018302840111600160201b83111715610c2d57600080fd5b91908080601f0160208091040260200160405190810160405280939291908181526020018383808284376000920191909152509295949360208101935035915050600160201b811115610c7f57600080fd5b820183602082011115610c9157600080fd5b803590602001918460018302840111600160201b83111715610cb257600080fd5b91908080601f0160208091040260200160405190810160405280939291908181526020018383808284376000920191909152509295949360208101935035915050600160201b811115610d0457600080fd5b820183602082011115610d1657600080fd5b803590602001918460018302840111600160201b83111715610d3757600080fd5b91908080601f0160208091040260200160405190810160405280939291908181526020018383808284376000920191909152509295505091359250611d4a915050565b60006006836040518082805190602001908083835b60208310610dae5780518252601f199092019160209182019101610d8f565b51815160209384036101000a6000190180199092169116179052920194855250604051938490038101842086519094879450925082918401908083835b60208310610e0a5780518252601f199092019160209182019101610deb565b51815160209384036101000a600019018019909216911617905292019485525060405193849003019092205495945050505050565b6000546001600160a01b0316331415610e60576000546001600160a01b0316ff5b565b6060610e6e8484610d7a565b821015610fdd576006846040518082805190602001908083835b60208310610ea75780518252601f199092019160209182019101610e88565b51815160209384036101000a6000190180199092169116179052920194855250604051938490038101842087519094889450925082918401908083835b60208310610f035780518252601f199092019160209182019101610ee4565b51815160209384036101000a6000190180199092169116179052920194855250604051938490030190922080549092508491508110610f3e57fe5b60009182526020918290206002918202018054604080516001831615610100026000190190921693909304601f810185900485028201850190935282815292909190830182828015610fd15780601f10610fa657610100808354040283529160200191610fd1565b820191906000526020600020905b815481529060010190602001808311610fb457829003601f168201915b50505050509050610fee565b506040805160208101909152600081525b9392505050565b60606110018484610d7a565b821015610fdd576006846040518082805190602001908083835b6020831061103a5780518252601f19909201916020918201910161101b565b51815160209384036101000a6000190180199092169116179052920194855250604051938490038101842087519094889450925082918401908083835b602083106110965780518252601f199092019160209182019101611077565b51815160209384036101000a60001901801990921691161790529201948552506040519384900301909220805490925084915081106110d157fe5b90600052602060002090600202016001018054600181600116156101000203166002900480601f016020809104026020016040519081016040528092919081815260200182805460018160011615610100020316600290048015610fd15780601f10610fa657610100808354040283529160200191610fd1565b60606005826040518082805190602001908083835b6020831061117f5780518252601f199092019160209182019101611160565b518151600019602094850361010090810a820192831692199390931691909117909252949092019687526040805197889003820188208054601f60026001831615909802909501169590950492830182900482028801820190528187529294509250508301828280156112335780601f1061120857610100808354040283529160200191611233565b820191906000526020600020905b81548152906001019060200180831161121657829003601f168201915b505050505090505b919050565b60606003826040518082805190602001908083836020831061117f5780518252601f199092019160209182019101611160565b60006002846040518082805190602001908083835b602083106112a75780518252601f199092019160209182019101611288565b51815160209384036101000a60001901801990921691161790529201948552506040519384900301909220546001600160a01b0316151591506115399050573360009081526001602090815260409091208551611306928701906122d7565b50336002856040518082805190602001908083835b6020831061133a5780518252601f19909201916020918201910161131b565b51815160209384036101000a6000190180199092169116179052920194855250604051938490038101842080546001600160a01b0319166001600160a01b039690961695909517909455505085518592600392889290918291908401908083835b602083106113ba5780518252601f19909201916020918201910161139b565b51815160209384036101000a600019018019909216911617905292019485525060405193849003810190932084516113fb95919491909101925090506122d7565b50816004856040518082805190602001908083835b6020831061142f5780518252601f199092019160209182019101611410565b51815160209384036101000a6000190180199092169116179052920194855250604051938490038101909320845161147095919491909101925090506122d7565b507fcc74ffc04fd3b512adb31019610290c2855f12d2437a8f2c7d6151cf17ad11fa3385600160405180846001600160a01b03166001600160a01b031681526020018060200183151515158152602001828103825284818151815260200191508051906020019080838360005b838110156114f55781810151838201526020016114dd565b50505050905090810190601f1680156115225780820380516001836020036101000a031916815260200191505b5094505050505060405180910390a1506001610fee565b7fcc74ffc04fd3b512adb31019610290c2855f12d2437a8f2c7d6151cf17ad11fa3385600060405180846001600160a01b03166001600160a01b031681526020018060200183151515158152602001828103825284818151815260200191508051906020019080838360005b838110156115bd5781810151838201526020016115a5565b50505050905090810190601f1680156115ea5780820380516001836020036101000a031916815260200191505b5094505050505060405180910390a15060009392505050565b60606004826040518082805190602001908083836020831061117f5780518252601f199092019160209182019101611160565b60006002826040518082805190602001908083835b6020831061166a5780518252601f19909201916020918201910161164b565b51815160209384036101000a60001901801990921691161790529201948552506040519384900301909220546001600160a01b0316949350505050565b604080516000808252602082019283905290519091206116c633611cd7565b6040516020018082805190602001908083835b602083106116f85780518252601f1990920191602091820191016116d9565b6001836020036101000a038019825116818451168082178552505050505050905001915050604051602081830303815290604052805190602001201461197a576006846040518082805190602001908083835b6020831061176a5780518252601f19909201916020918201910161174b565b51815160209384036101000a6000190180199092169116179052920194855250604051938490038101842087519094889450925082918401908083835b602083106117c65780518252601f1990920191602091820191016117a7565b51815160209384036101000a60001901801990921691161790529201948552506040805194859003909101842084820190915292915081905061180833611cd7565b8152602090810185905282546001810180855560009485529382902083518051600290930290910192611840928492909101906122d7565b50602082810151805161185992600185019201906122d7565b50505050600080516020612373833981519152338585600160405180856001600160a01b03166001600160a01b03168152602001806020018060200184151515158152602001838103835286818151815260200191508051906020019080838360005b838110156118d45781810151838201526020016118bc565b50505050905090810190601f1680156119015780820380516001836020036101000a031916815260200191505b50838103825285518152855160209182019187019080838360005b8381101561193457818101518382015260200161191c565b50505050905090810190601f1680156119615780820380516001836020036101000a031916815260200191505b50965050505050505060405180910390a1506001610fee565b600080516020612373833981519152338585600060405180856001600160a01b03166001600160a01b03168152602001806020018060200184151515158152602001838103835286818151815260200191508051906020019080838360005b838110156119f15781810151838201526020016119d9565b50505050905090810190601f168015611a1e5780820380516001836020036101000a031916815260200191505b50838103825285518152855160209182019187019080838360005b83811015611a51578181015183820152602001611a39565b50505050905090810190601f168015611a7e5780820380516001836020036101000a031916815260200191505b50965050505050505060405180910390a15060009392505050565b6040805160008082526020808301808552835190203360601b848601528451603481860301815260549094019094528251920191909120909114611c1657816005611ae333611cd7565b6040518082805190602001908083835b60208310611b125780518252601f199092019160209182019101611af3565b51815160209384036101000a60001901801990921691161790529201948552506040519384900381019093208451611b5395919491909101925090506122d7565b507f47b88310d77b1e32701acf15a814aa72b3d26c3092e4072da3728de57e7e73fd33611b7f33611cd7565b604080516001600160a01b03841681526001918101829052606060208083018281528551928401929092528451608084019186019080838360005b83811015611bd2578181015183820152602001611bba565b50505050905090810190601f168015611bff5780820380516001836020036101000a031916815260200191505b5094505050505060405180910390a150600161123b565b7f47b88310d77b1e32701acf15a814aa72b3d26c3092e4072da3728de57e7e73fd33611c4133611cd7565b604080516001600160a01b038416815260009181018290526060602080830182815285519284019290925284516080840191860190808383885b83811015611c93578181015183820152602001611c7b565b50505050905090810190601f168015611cc05780820380516001836020036101000a031916815260200191505b5094505050505060405180910390a1506000919050565b6001600160a01b03811660009081526001602081815260409283902080548451600294821615610100026000190190911693909304601f810183900483028401830190945283835260609390918301828280156112335780601f1061120857610100808354040283529160200191611233565b60408051600080825260208201928390529051909120611d6933611cd7565b6040516020018082805190602001908083835b60208310611d9b5780518252601f199092019160209182019101611d7c565b6001836020036101000a03801982511681845116808217855250505050505090500191505060405160208183030381529060405280519060200120146121b657611de433611cd7565b6040516020018082805190602001908083835b60208310611e165780518252601f199092019160209182019101611df7565b6001836020036101000a038019825116818451168082178552505050505050905001915050604051602081830303815290604052805190602001206006866040518082805190602001908083835b60208310611e835780518252601f199092019160209182019101611e64565b51815160209384036101000a60001901801990921691161790529201948552506040519384900381018420895190948a9450925082918401908083835b60208310611edf5780518252601f199092019160209182019101611ec0565b51815160209384036101000a6000190180199092169116179052920194855250604051938490030190922080549092508591508110611f1a57fe5b90600052602060002090600202016000016040516020018082805460018160011615610100020316600290048015611f895780601f10611f67576101008083540402835291820191611f89565b820191906000526020600020905b815481529060010190602001808311611f75575b50509150506040516020818303038152906040528051906020012014156121b657826006866040518082805190602001908083835b60208310611fdd5780518252601f199092019160209182019101611fbe565b51815160209384036101000a60001901801990921691161790529201948552506040519384900381018420895190948a9450925082918401908083835b602083106120395780518252601f19909201916020918201910161201a565b51815160209384036101000a600019018019909216911617905292019485525060405193849003019092208054909250859150811061207457fe5b906000526020600020906002020160010190805190602001906120989291906122d7565b50600080516020612373833981519152338686600160405180856001600160a01b03166001600160a01b03168152602001806020018060200184151515158152602001838103835286818151815260200191508051906020019080838360005b838110156121105781810151838201526020016120f8565b50505050905090810190601f16801561213d5780820380516001836020036101000a031916815260200191505b50838103825285518152855160209182019187019080838360005b83811015612170578181015183820152602001612158565b50505050905090810190601f16801561219d5780820380516001836020036101000a031916815260200191505b50965050505050505060405180910390a15060016122cf565b600080516020612373833981519152338685600060405180856001600160a01b03166001600160a01b03168152602001806020018060200184151515158152602001838103835286818151815260200191508051906020019080838360005b8381101561222d578181015183820152602001612215565b50505050905090810190601f16801561225a5780820380516001836020036101000a031916815260200191505b50838103825285518152855160209182019187019080838360005b8381101561228d578181015183820152602001612275565b50505050905090810190601f1680156122ba5780820380516001836020036101000a031916815260200191505b50965050505050505060405180910390a15060005b949350505050565b828054600181600116156101000203166002900490600052602060002090601f016020900481019282601f1061231857805160ff1916838001178555612345565b82800160010185558215612345579182015b8281111561234557825182559160200191906001019061232a565b50612351929150612355565b5090565b61236f91905b80821115612351576000815560010161235b565b9056fe89c73c245c0893af61e3b65f03ee08c0666bf27f46842bff4088fc0917d79628a265627a7a723158204f79b8761e97d072975d14caebc1691e4363c584e674ee0cdfe4d3ecbdd113f464736f6c63430005100032",
  "source": "pragma solidity ^0.5.16;\r\n\r\ncontract BlockAuthVerify {\r\n\r\n    address payable owner;\r\n    mapping ( address => string ) usernames;\r\n    mapping ( string => address ) reverse_usernames;\r\n    mapping ( string => string ) block_auth_urls;\r\n    mapping ( string => string ) public_keys;\r\n    mapping ( string => string ) data;\r\n\r\n    event NewUserAdded(address from, string username, bool success);\r\n    event NewVerification(address from, string username, string verificationType, bool success);\r\n    event UserDataUpdated(address from, string username, bool success);\r\n\r\n    struct Verification {\r\n\r\n        string verifier;\r\n        string verified_value;\r\n    }\r\n\r\n    struct ListOfVerifications {\r\n\r\n        Verification[] verifications;\r\n    }\r\n\r\n    mapping ( string => mapping ( string => ListOfVerifications )) external_verifications;\r\n\r\n    constructor() public {\r\n\r\n        owner = msg.sender;\r\n    }\r\n\r\n    function killBlockAuth() public {\r\n\r\n        if(msg.sender == owner){\r\n            selfdestruct(owner);\r\n        }\r\n    }\r\n\r\n    function addNewUser(string memory username, string memory block_auth_url, string memory public_key) public returns (bool) {\r\n\r\n        if (reverse_usernames[username] == 0x0000000000000000000000000000000000000000){\r\n\r\n            usernames[msg.sender] = username;\r\n            reverse_usernames[username] = msg.sender;\r\n            block_auth_urls[username] = block_auth_url;\r\n            public_keys[username] = public_key;\r\n\r\n            emit NewUserAdded(msg.sender, username, true);\r\n            return true;\r\n        }\r\n\r\n        emit NewUserAdded(msg.sender, username, false);\r\n        return false;\r\n    }\r\n\r\n\r\n    function getUsername(address user_address) public view returns (string memory) {\r\n        return usernames[user_address];\r\n    }\r\n\r\n    function getAddress(string memory username) public view returns (address) {\r\n        return reverse_usernames[username];\r\n    }\r\n\r\n    function getBlockAuthUrl(string memory username) public view returns (string memory) {\r\n        return block_auth_urls[username];\r\n    }\r\n\r\n    function getBlockAuthPublicKey(string memory username) public view returns (string memory) {\r\n        return public_keys[username];\r\n    }\r\n\r\n    function getUserVerificationCount(string memory username, string memory verification_type) public view returns (uint256) {\r\n        return external_verifications[username][verification_type].verifications.length;\r\n    }\r\n\r\n    function getUserVerifierByIndex(string memory username, string memory verification_type, uint256 index) public view returns (string memory) {\r\n        if(index < getUserVerificationCount(username, verification_type)){\r\n            return external_verifications[username][verification_type].verifications[index].verifier;\r\n        }\r\n\r\n        return \"\";\r\n    }\r\n\r\n    function getUserVerifiedValueByIndex(string memory username, string memory verification_type, uint256 index) public view returns (string memory) {\r\n        if(index < getUserVerificationCount(username, verification_type)){\r\n            return external_verifications[username][verification_type].verifications[index].verified_value;\r\n        }\r\n\r\n        return \"\";\r\n    }\r\n\r\n    function putUserVerification(string memory username, string memory verification_type, string memory verification_value) public returns (bool) {\r\n        if ( keccak256(abi.encodePacked(getUsername(msg.sender))) != keccak256(abi.encodePacked(\"\"))){\r\n            external_verifications[username][verification_type].verifications.push(Verification({verifier: getUsername(msg.sender), verified_value: verification_value}));\r\n            emit NewVerification(msg.sender, username, verification_type, true);\r\n            return true;\r\n        }\r\n\r\n        emit NewVerification(msg.sender, username, verification_type, false);\r\n        return false;\r\n    }\r\n\r\n    function putUserVerification(string memory username, string memory verification_type, string memory verification_value, uint256 index) public returns (bool){\r\n        if( keccak256(abi.encodePacked(getUsername(msg.sender))) != keccak256(abi.encodePacked(\"\"))){\r\n            if(keccak256(abi.encodePacked(external_verifications[username][verification_type].verifications[index].verifier)) == keccak256(abi.encodePacked(getUsername(msg.sender)))){\r\n                external_verifications[username][verification_type].verifications[index].verified_value = verification_value;\r\n                emit NewVerification(msg.sender, username, verification_type, true);\r\n                return true;\r\n            }\r\n        }\r\n\r\n        emit NewVerification(msg.sender, username, verification_value, false);\r\n        return false;\r\n    }\r\n\r\n    function setEncryptionData(string memory encryptedData) public returns (bool) {\r\n        if(keccak256(abi.encodePacked(msg.sender)) != keccak256(abi.encodePacked(\"\"))){\r\n            data[getUsername(msg.sender)] = encryptedData;\r\n            emit UserDataUpdated(msg.sender, getUsername(msg.sender), true);\r\n            return true;\r\n        }\r\n\r\n        emit UserDataUpdated(msg.sender, getUsername(msg.sender), false);\r\n        return false;\r\n    }\r\n\r\n    function getEncryptedData(string memory username) public view returns (string memory) {\r\n        return data[username];\r\n    }\r\n\r\n\r\n\r\n\r\n}",
  "sourcePath": "D:\\Documents\\Programming\\VS Code\\Blockchain-Auth-Service\\contracts\\BlockAuthVerify.sol",
  "compiler": {
    "name": "solc",
    "version": "0.5.16+commit.9c3226ce.Emscripten.clang"
  },
  "schemaVersion": "3.2.1",
  "updatedAt": "2020-07-08T07:47:48.936Z",
  "networkType": "ethereum",
  "devdoc": {
    "methods": {}
  },
  "userdoc": {
    "methods": {}
  }
}