{
  "contractName": "BlockAuthVerify",
  "abi": [
    {
      "inputs": [],
      "payable": false,
      "stateMutability": "nonpayable",
      "type": "constructor"
    },
    {
      "anonymous": false,
      "inputs": [
        {
          "indexed": false,
          "internalType": "address",
          "name": "from",
          "type": "address"
        },
        {
          "indexed": false,
          "internalType": "string",
          "name": "username",
          "type": "string"
        },
        {
          "indexed": false,
          "internalType": "bool",
          "name": "success",
          "type": "bool"
        }
      ],
      "name": "NewUserAdded",
      "type": "event"
    },
    {
      "anonymous": false,
      "inputs": [
        {
          "indexed": false,
          "internalType": "address",
          "name": "from",
          "type": "address"
        },
        {
          "indexed": false,
          "internalType": "string",
          "name": "username",
          "type": "string"
        },
        {
          "indexed": false,
          "internalType": "string",
          "name": "verificationType",
          "type": "string"
        },
        {
          "indexed": false,
          "internalType": "bool",
          "name": "success",
          "type": "bool"
        }
      ],
      "name": "NewVerification",
      "type": "event"
    },
    {
      "anonymous": false,
      "inputs": [
        {
          "indexed": false,
          "internalType": "address",
          "name": "from",
          "type": "address"
        },
        {
          "indexed": false,
          "internalType": "string",
          "name": "username",
          "type": "string"
        },
        {
          "indexed": false,
          "internalType": "bool",
          "name": "success",
          "type": "bool"
        }
      ],
      "name": "UserDataUpdated",
      "type": "event"
    },
    {
      "constant": false,
      "inputs": [],
      "name": "killBlockAuth",
      "outputs": [],
      "payable": false,
      "stateMutability": "nonpayable",
      "type": "function"
    },
    {
      "constant": false,
      "inputs": [
        {
          "internalType": "string",
          "name": "username",
          "type": "string"
        },
        {
          "internalType": "string",
          "name": "block_auth_url",
          "type": "string"
        },
        {
          "internalType": "string",
          "name": "public_key",
          "type": "string"
        }
      ],
      "name": "addNewUser",
      "outputs": [
        {
          "internalType": "bool",
          "name": "",
          "type": "bool"
        }
      ],
      "payable": false,
      "stateMutability": "nonpayable",
      "type": "function"
    },
    {
      "constant": true,
      "inputs": [
        {
          "internalType": "string",
          "name": "username",
          "type": "string"
        }
      ],
      "name": "usernameAvailable",
      "outputs": [
        {
          "internalType": "bool",
          "name": "",
          "type": "bool"
        }
      ],
      "payable": false,
      "stateMutability": "view",
      "type": "function"
    },
    {
      "constant": true,
      "inputs": [
        {
          "internalType": "address",
          "name": "user_address",
          "type": "address"
        }
      ],
      "name": "getUsername",
      "outputs": [
        {
          "internalType": "string",
          "name": "",
          "type": "string"
        }
      ],
      "payable": false,
      "stateMutability": "view",
      "type": "function"
    },
    {
      "constant": true,
      "inputs": [
        {
          "internalType": "string",
          "name": "username",
          "type": "string"
        }
      ],
      "name": "getAddress",
      "outputs": [
        {
          "internalType": "address",
          "name": "",
          "type": "address"
        }
      ],
      "payable": false,
      "stateMutability": "view",
      "type": "function"
    },
    {
      "constant": true,
      "inputs": [
        {
          "internalType": "string",
          "name": "username",
          "type": "string"
        }
      ],
      "name": "getBlockAuthUrl",
      "outputs": [
        {
          "internalType": "string",
          "name": "",
          "type": "string"
        }
      ],
      "payable": false,
      "stateMutability": "view",
      "type": "function"
    },
    {
      "constant": true,
      "inputs": [
        {
          "internalType": "string",
          "name": "username",
          "type": "string"
        }
      ],
      "name": "getBlockAuthPublicKey",
      "outputs": [
        {
          "internalType": "string",
          "name": "",
          "type": "string"
        }
      ],
      "payable": false,
      "stateMutability": "view",
      "type": "function"
    },
    {
      "constant": false,
      "inputs": [
        {
          "internalType": "string",
          "name": "encryptedData",
          "type": "string"
        }
      ],
      "name": "setEncryptionData",
      "outputs": [
        {
          "internalType": "bool",
          "name": "",
          "type": "bool"
        }
      ],
      "payable": false,
      "stateMutability": "nonpayable",
      "type": "function"
    },
    {
      "constant": true,
      "inputs": [
        {
          "internalType": "string",
          "name": "username",
          "type": "string"
        }
      ],
      "name": "getEncryptedData",
      "outputs": [
        {
          "internalType": "string",
          "name": "",
          "type": "string"
        }
      ],
      "payable": false,
      "stateMutability": "view",
      "type": "function"
    }
  ],
  "bytecode": "0x608060405234801561001057600080fd5b50600080546001600160a01b03191633179055611077806100326000396000f3fe608060405234801561001057600080fd5b50600436106100935760003560e01c80639a12b1c0116100665780639a12b1c0146103175780639c1ff1af146104c5578063bf40fac114610569578063cbf1496214610629578063ce43c032146106cd57610093565b806313937b4f1461009857806349e4622c146100a25780634f363d9e146101bb57806374ebaadc1461025f575b600080fd5b6100a06106f3565b005b610146600480360360208110156100b857600080fd5b810190602081018135600160201b8111156100d257600080fd5b8201836020820111156100e457600080fd5b803590602001918460018302840111600160201b8311171561010557600080fd5b91908080601f016020809104026020016040519081016040528093929190818152602001838380828437600092019190915250929550610716945050505050565b6040805160208082528351818301528351919283929083019185019080838360005b83811015610180578181015183820152602001610168565b50505050905090810190601f1680156101ad5780820380516001836020036101000a031916815260200191505b509250505060405180910390f35b610146600480360360208110156101d157600080fd5b810190602081018135600160201b8111156101eb57600080fd5b8201836020820111156101fd57600080fd5b803590602001918460018302840111600160201b8311171561021e57600080fd5b91908080601f01602080910402602001604051908101604052809392919081815260200183838082843760009201919091525092955061080b945050505050565b6103036004803603602081101561027557600080fd5b810190602081018135600160201b81111561028f57600080fd5b8201836020820111156102a157600080fd5b803590602001918460018302840111600160201b831117156102c257600080fd5b91908080601f01602080910402602001604051908101604052809392919081815260200183838082843760009201919091525092955061083e945050505050565b604080519115158252519081900360200190f35b6103036004803603606081101561032d57600080fd5b810190602081018135600160201b81111561034757600080fd5b82018360208201111561035957600080fd5b803590602001918460018302840111600160201b8311171561037a57600080fd5b91908080601f0160208091040260200160405190810160405280939291908181526020018383808284376000920191909152509295949360208101935035915050600160201b8111156103cc57600080fd5b8201836020820111156103de57600080fd5b803590602001918460018302840111600160201b831117156103ff57600080fd5b91908080601f0160208091040260200160405190810160405280939291908181526020018383808284376000920191909152509295949360208101935035915050600160201b81111561045157600080fd5b82018360208201111561046357600080fd5b803590602001918460018302840111600160201b8311171561048457600080fd5b91908080601f0160208091040260200160405190810160405280939291908181526020018383808284376000920191909152509295506108c1945050505050565b610146600480360360208110156104db57600080fd5b810190602081018135600160201b8111156104f557600080fd5b82018360208201111561050757600080fd5b803590602001918460018302840111600160201b8311171561052857600080fd5b91908080601f016020809104026020016040519081016040528093929190818152602001838380828437600092019190915250929550610c52945050505050565b61060d6004803603602081101561057f57600080fd5b810190602081018135600160201b81111561059957600080fd5b8201836020820111156105ab57600080fd5b803590602001918460018302840111600160201b831117156105cc57600080fd5b91908080601f016020809104026020016040519081016040528093929190818152602001838380828437600092019190915250929550610c85945050505050565b604080516001600160a01b039092168252519081900360200190f35b6103036004803603602081101561063f57600080fd5b810190602081018135600160201b81111561065957600080fd5b82018360208201111561066b57600080fd5b803590602001918460018302840111600160201b8311171561068c57600080fd5b91908080601f016020809104026020016040519081016040528093929190818152602001838380828437600092019190915250929550610cf6945050505050565b610146600480360360208110156106e357600080fd5b50356001600160a01b0316610f34565b6000546001600160a01b0316331415610714576000546001600160a01b0316ff5b565b60606005826040518082805190602001908083835b6020831061074a5780518252601f19909201916020918201910161072b565b518151600019602094850361010090810a820192831692199390931691909117909252949092019687526040805197889003820188208054601f60026001831615909802909501169590950492830182900482028801820190528187529294509250508301828280156107fe5780601f106107d3576101008083540402835291602001916107fe565b820191906000526020600020905b8154815290600101906020018083116107e157829003601f168201915b505050505090505b919050565b60606003826040518082805190602001908083836020831061074a5780518252601f19909201916020918201910161072b565b60006002826040518082805190602001908083835b602083106108725780518252601f199092019160209182019101610853565b51815160209384036101000a60001901801990921691161790529201948552506040519384900301909220546001600160a01b0316151591506108b9905057506001610806565b506000610806565b60006002846040518082805190602001908083835b602083106108f55780518252601f1990920191602091820191016108d6565b51815160209384036101000a60001901801990921691161790529201948552506040519384900301909220546001600160a01b031615159150610b87905057336000908152600160209081526040909120855161095492870190610fa7565b50336002856040518082805190602001908083835b602083106109885780518252601f199092019160209182019101610969565b51815160209384036101000a6000190180199092169116179052920194855250604051938490038101842080546001600160a01b0319166001600160a01b039690961695909517909455505085518592600392889290918291908401908083835b60208310610a085780518252601f1990920191602091820191016109e9565b51815160209384036101000a60001901801990921691161790529201948552506040519384900381019093208451610a499591949190910192509050610fa7565b50816004856040518082805190602001908083835b60208310610a7d5780518252601f199092019160209182019101610a5e565b51815160209384036101000a60001901801990921691161790529201948552506040519384900381019093208451610abe9591949190910192509050610fa7565b507fcc74ffc04fd3b512adb31019610290c2855f12d2437a8f2c7d6151cf17ad11fa3385600160405180846001600160a01b03166001600160a01b031681526020018060200183151515158152602001828103825284818151815260200191508051906020019080838360005b83811015610b43578181015183820152602001610b2b565b50505050905090810190601f168015610b705780820380516001836020036101000a031916815260200191505b5094505050505060405180910390a1506001610c4b565b7fcc74ffc04fd3b512adb31019610290c2855f12d2437a8f2c7d6151cf17ad11fa3385600060405180846001600160a01b03166001600160a01b031681526020018060200183151515158152602001828103825284818151815260200191508051906020019080838360005b83811015610c0b578181015183820152602001610bf3565b50505050905090810190601f168015610c385780820380516001836020036101000a031916815260200191505b5094505050505060405180910390a15060005b9392505050565b60606004826040518082805190602001908083836020831061074a5780518252601f19909201916020918201910161072b565b60006002826040518082805190602001908083835b60208310610cb95780518252601f199092019160209182019101610c9a565b51815160209384036101000a60001901801990921691161790529201948552506040519384900301909220546001600160a01b0316949350505050565b6040805160008082526020808301808552835190203360601b848601528451603481860301815260549094019094528251920191909120909114610e7357816005610d4033610f34565b6040518082805190602001908083835b60208310610d6f5780518252601f199092019160209182019101610d50565b51815160209384036101000a60001901801990921691161790529201948552506040519384900381019093208451610db09591949190910192509050610fa7565b507f47b88310d77b1e32701acf15a814aa72b3d26c3092e4072da3728de57e7e73fd33610ddc33610f34565b604080516001600160a01b03841681526001918101829052606060208083018281528551928401929092528451608084019186019080838360005b83811015610e2f578181015183820152602001610e17565b50505050905090810190601f168015610e5c5780820380516001836020036101000a031916815260200191505b5094505050505060405180910390a1506001610806565b7f47b88310d77b1e32701acf15a814aa72b3d26c3092e4072da3728de57e7e73fd33610e9e33610f34565b604080516001600160a01b038416815260009181018290526060602080830182815285519284019290925284516080840191860190808383885b83811015610ef0578181015183820152602001610ed8565b50505050905090810190601f168015610f1d5780820380516001836020036101000a031916815260200191505b5094505050505060405180910390a1506000919050565b6001600160a01b03811660009081526001602081815260409283902080548451600294821615610100026000190190911693909304601f810183900483028401830190945283835260609390918301828280156107fe5780601f106107d3576101008083540402835291602001916107fe565b828054600181600116156101000203166002900490600052602060002090601f016020900481019282601f10610fe857805160ff1916838001178555611015565b82800160010185558215611015579182015b82811115611015578251825591602001919060010190610ffa565b50611021929150611025565b5090565b61103f91905b80821115611021576000815560010161102b565b9056fea265627a7a72315820b228af43948d2ca52d57edf09019bd8260511785ca61718271daa39952e3800164736f6c63430005100032",
  "source": "pragma solidity ^0.5.16;\r\n\r\ncontract BlockAuthVerify {\r\n\r\n    address payable owner;\r\n    mapping ( address => string ) usernames;\r\n    mapping ( string => address ) reverse_usernames;\r\n    mapping ( string => string ) block_auth_urls;\r\n    mapping ( string => string ) public_keys;\r\n    mapping ( string => string ) data;\r\n\r\n    event NewUserAdded(address from, string username, bool success);\r\n    event NewVerification(address from, string username, string verificationType, bool success);\r\n    event UserDataUpdated(address from, string username, bool success);\r\n\r\n    constructor() public {\r\n\r\n        owner = msg.sender;\r\n    }\r\n\r\n    function killBlockAuth() public {\r\n\r\n        if(msg.sender == owner){\r\n            selfdestruct(owner);\r\n        }\r\n    }\r\n\r\n    function addNewUser(string memory username, string memory block_auth_url, string memory public_key) public returns (bool) {\r\n\r\n        if (reverse_usernames[username] == 0x0000000000000000000000000000000000000000){\r\n\r\n            usernames[msg.sender] = username;\r\n            reverse_usernames[username] = msg.sender;\r\n            block_auth_urls[username] = block_auth_url;\r\n            public_keys[username] = public_key;\r\n\r\n            emit NewUserAdded(msg.sender, username, true);\r\n            return true;\r\n        }\r\n\r\n        emit NewUserAdded(msg.sender, username, false);\r\n        return false;\r\n    }\r\n\r\n    function usernameAvailable(string memory username) public view returns (bool) {\r\n\r\n        if (reverse_usernames[username] == 0x0000000000000000000000000000000000000000) {\r\n\r\n            return true;\r\n        }\r\n        else{\r\n            return false;\r\n        }\r\n    }\r\n\r\n    function getUsername(address user_address) public view returns (string memory) {\r\n        return usernames[user_address];\r\n    }\r\n\r\n    function getAddress(string memory username) public view returns (address) {\r\n        return reverse_usernames[username];\r\n    }\r\n\r\n    function getBlockAuthUrl(string memory username) public view returns (string memory) {\r\n        return block_auth_urls[username];\r\n    }\r\n\r\n    function getBlockAuthPublicKey(string memory username) public view returns (string memory) {\r\n        return public_keys[username];\r\n    }\r\n\r\n    function setEncryptionData(string memory encryptedData) public returns (bool) {\r\n        if(keccak256(abi.encodePacked(msg.sender)) != keccak256(abi.encodePacked(\"\"))){\r\n            data[getUsername(msg.sender)] = encryptedData;\r\n            emit UserDataUpdated(msg.sender, getUsername(msg.sender), true);\r\n            return true;\r\n        }\r\n\r\n        emit UserDataUpdated(msg.sender, getUsername(msg.sender), false);\r\n        return false;\r\n    }\r\n\r\n    function getEncryptedData(string memory username) public view returns (string memory) {\r\n        return data[username];\r\n    }\r\n\r\n\r\n}",
  "sourcePath": "D:/Programming/Active Projects/VS Code/CreditX/Blockchain-Auth-Service/contracts/BlockAuthVerify.sol",
  "compiler": {
    "name": "solc",
    "version": "0.5.16+commit.9c3226ce.Emscripten.clang"
  },
  "schemaVersion": "3.2.5",
  "updatedAt": "2020-09-26T07:01:10.616Z",
  "networkType": "ethereum",
  "devdoc": {
    "methods": {}
  },
  "userdoc": {
    "methods": {}
  }
}