{
  "contractName": "BlockAuth",
  "abi": [
    {
      "inputs": [],
      "payable": false,
      "stateMutability": "nonpayable",
      "type": "constructor"
    },
    {
      "anonymous": false,
      "inputs": [
        {
          "indexed": false,
          "internalType": "address",
          "name": "from",
          "type": "address"
        },
        {
          "indexed": false,
          "internalType": "string",
          "name": "username",
          "type": "string"
        },
        {
          "indexed": false,
          "internalType": "bool",
          "name": "success",
          "type": "bool"
        }
      ],
      "name": "NewUserAdded",
      "type": "event"
    },
    {
      "constant": false,
      "inputs": [],
      "name": "killBlockAuth",
      "outputs": [],
      "payable": false,
      "stateMutability": "nonpayable",
      "type": "function"
    },
    {
      "constant": false,
      "inputs": [
        {
          "internalType": "string",
          "name": "username",
          "type": "string"
        },
        {
          "internalType": "string",
          "name": "block_auth_url",
          "type": "string"
        },
        {
          "internalType": "string",
          "name": "public_key",
          "type": "string"
        }
      ],
      "name": "addNewUser",
      "outputs": [
        {
          "internalType": "bool",
          "name": "",
          "type": "bool"
        }
      ],
      "payable": false,
      "stateMutability": "nonpayable",
      "type": "function"
    },
    {
      "constant": true,
      "inputs": [
        {
          "internalType": "address",
          "name": "user_address",
          "type": "address"
        }
      ],
      "name": "getUsername",
      "outputs": [
        {
          "internalType": "string",
          "name": "",
          "type": "string"
        }
      ],
      "payable": false,
      "stateMutability": "view",
      "type": "function"
    },
    {
      "constant": true,
      "inputs": [
        {
          "internalType": "string",
          "name": "username",
          "type": "string"
        }
      ],
      "name": "getAddress",
      "outputs": [
        {
          "internalType": "address",
          "name": "",
          "type": "address"
        }
      ],
      "payable": false,
      "stateMutability": "view",
      "type": "function"
    },
    {
      "constant": true,
      "inputs": [
        {
          "internalType": "string",
          "name": "username",
          "type": "string"
        }
      ],
      "name": "getBlockAuthUrl",
      "outputs": [
        {
          "internalType": "string",
          "name": "",
          "type": "string"
        }
      ],
      "payable": false,
      "stateMutability": "view",
      "type": "function"
    },
    {
      "constant": true,
      "inputs": [
        {
          "internalType": "string",
          "name": "username",
          "type": "string"
        }
      ],
      "name": "getBlockAuthPublicKey",
      "outputs": [
        {
          "internalType": "string",
          "name": "",
          "type": "string"
        }
      ],
      "payable": false,
      "stateMutability": "view",
      "type": "function"
    }
  ],
  "bytecode": "0x608060405234801561001057600080fd5b50600080546001600160a01b03191633179055610b65806100326000396000f3fe608060405234801561001057600080fd5b50600436106100625760003560e01c806313937b4f146100675780634f363d9e146100715780639a12b1c01461018a5780639c1ff1af1461034c578063bf40fac1146103f0578063ce43c032146104b0575b600080fd5b61006f6104d6565b005b6101156004803603602081101561008757600080fd5b810190602081018135600160201b8111156100a157600080fd5b8201836020820111156100b357600080fd5b803590602001918460018302840111600160201b831117156100d457600080fd5b91908080601f0160208091040260200160405190810160405280939291908181526020018383808284376000920191909152509295506104f9945050505050565b6040805160208082528351818301528351919283929083019185019080838360005b8381101561014f578181015183820152602001610137565b50505050905090810190601f16801561017c5780820380516001836020036101000a031916815260200191505b509250505060405180910390f35b610338600480360360608110156101a057600080fd5b810190602081018135600160201b8111156101ba57600080fd5b8201836020820111156101cc57600080fd5b803590602001918460018302840111600160201b831117156101ed57600080fd5b91908080601f0160208091040260200160405190810160405280939291908181526020018383808284376000920191909152509295949360208101935035915050600160201b81111561023f57600080fd5b82018360208201111561025157600080fd5b803590602001918460018302840111600160201b8311171561027257600080fd5b91908080601f0160208091040260200160405190810160405280939291908181526020018383808284376000920191909152509295949360208101935035915050600160201b8111156102c457600080fd5b8201836020820111156102d657600080fd5b803590602001918460018302840111600160201b831117156102f757600080fd5b91908080601f0160208091040260200160405190810160405280939291908181526020018383808284376000920191909152509295506105ed945050505050565b604080519115158252519081900360200190f35b6101156004803603602081101561036257600080fd5b810190602081018135600160201b81111561037c57600080fd5b82018360208201111561038e57600080fd5b803590602001918460018302840111600160201b831117156103af57600080fd5b91908080601f01602080910402602001604051908101604052809392919081815260200183838082843760009201919091525092955061097e945050505050565b6104946004803603602081101561040657600080fd5b810190602081018135600160201b81111561042057600080fd5b82018360208201111561043257600080fd5b803590602001918460018302840111600160201b8311171561045357600080fd5b91908080601f0160208091040260200160405190810160405280939291908181526020018383808284376000920191909152509295506109b1945050505050565b604080516001600160a01b039092168252519081900360200190f35b610115600480360360208110156104c657600080fd5b50356001600160a01b0316610a22565b6000546001600160a01b03163314156104f7576000546001600160a01b0316ff5b565b60606003826040518082805190602001908083835b6020831061052d5780518252601f19909201916020918201910161050e565b518151600019602094850361010090810a820192831692199390931691909117909252949092019687526040805197889003820188208054601f60026001831615909802909501169590950492830182900482028801820190528187529294509250508301828280156105e15780601f106105b6576101008083540402835291602001916105e1565b820191906000526020600020905b8154815290600101906020018083116105c457829003601f168201915b50505050509050919050565b60006002846040518082805190602001908083835b602083106106215780518252601f199092019160209182019101610602565b51815160209384036101000a60001901801990921691161790529201948552506040519384900301909220546001600160a01b0316151591506108b3905057336000908152600160209081526040909120855161068092870190610a95565b50336002856040518082805190602001908083835b602083106106b45780518252601f199092019160209182019101610695565b51815160209384036101000a6000190180199092169116179052920194855250604051938490038101842080546001600160a01b0319166001600160a01b039690961695909517909455505085518592600392889290918291908401908083835b602083106107345780518252601f199092019160209182019101610715565b51815160209384036101000a600019018019909216911617905292019485525060405193849003810190932084516107759591949190910192509050610a95565b50816004856040518082805190602001908083835b602083106107a95780518252601f19909201916020918201910161078a565b51815160209384036101000a600019018019909216911617905292019485525060405193849003810190932084516107ea9591949190910192509050610a95565b507fcc74ffc04fd3b512adb31019610290c2855f12d2437a8f2c7d6151cf17ad11fa3385600160405180846001600160a01b03166001600160a01b031681526020018060200183151515158152602001828103825284818151815260200191508051906020019080838360005b8381101561086f578181015183820152602001610857565b50505050905090810190601f16801561089c5780820380516001836020036101000a031916815260200191505b5094505050505060405180910390a1506001610977565b7fcc74ffc04fd3b512adb31019610290c2855f12d2437a8f2c7d6151cf17ad11fa3385600060405180846001600160a01b03166001600160a01b031681526020018060200183151515158152602001828103825284818151815260200191508051906020019080838360005b8381101561093757818101518382015260200161091f565b50505050905090810190601f1680156109645780820380516001836020036101000a031916815260200191505b5094505050505060405180910390a15060005b9392505050565b60606004826040518082805190602001908083836020831061052d5780518252601f19909201916020918201910161050e565b60006002826040518082805190602001908083835b602083106109e55780518252601f1990920191602091820191016109c6565b51815160209384036101000a60001901801990921691161790529201948552506040519384900301909220546001600160a01b0316949350505050565b6001600160a01b03811660009081526001602081815260409283902080548451600294821615610100026000190190911693909304601f810183900483028401830190945283835260609390918301828280156105e15780601f106105b6576101008083540402835291602001916105e1565b828054600181600116156101000203166002900490600052602060002090601f016020900481019282601f10610ad657805160ff1916838001178555610b03565b82800160010185558215610b03579182015b82811115610b03578251825591602001919060010190610ae8565b50610b0f929150610b13565b5090565b610b2d91905b80821115610b0f5760008155600101610b19565b9056fea265627a7a72315820978cde626be8451c4795d9a3cf1716631ed28687ac26060ac62edc1212fc743564736f6c63430005100032",
  "source": "pragma solidity ^0.5.16;\r\n\r\ncontract BlockAuth {\r\n\r\n    address payable owner;\r\n    mapping ( address => string ) usernames;\r\n    mapping ( string => address ) reverse_usernames;\r\n    mapping ( string => string ) block_auth_urls;\r\n    mapping ( string => string ) public_keys;\r\n\r\n    event NewUserAdded(address from, string username, bool success);\r\n\r\n    constructor() public {\r\n\r\n        owner = msg.sender;\r\n    }\r\n\r\n    function killBlockAuth() public {\r\n\r\n        if(msg.sender == owner){\r\n            selfdestruct(owner);\r\n        }\r\n    }\r\n\r\n    function addNewUser(string memory username, string memory block_auth_url, string memory public_key) public returns (bool) {\r\n\r\n        if (reverse_usernames[username] == 0x0000000000000000000000000000000000000000){\r\n\r\n            usernames[msg.sender] = username;\r\n            reverse_usernames[username] = msg.sender;\r\n            block_auth_urls[username] = block_auth_url;\r\n            public_keys[username] = public_key;\r\n\r\n            emit NewUserAdded(msg.sender, username, true);\r\n            return true;\r\n        }\r\n\r\n        emit NewUserAdded(msg.sender, username, false);\r\n        return false;\r\n    }\r\n\r\n\r\n    function getUsername(address user_address) public view returns (string memory) {\r\n        return usernames[user_address];\r\n    }\r\n\r\n    function getAddress(string memory username) public view returns (address) {\r\n        return reverse_usernames[username];\r\n    }\r\n\r\n    function getBlockAuthUrl(string memory username) public view returns (string memory) {\r\n        return block_auth_urls[username];\r\n    }\r\n\r\n    function getBlockAuthPublicKey(string memory username) public view returns (string memory) {\r\n        return public_keys[username];\r\n    }\r\n\r\n\r\n}",
  "sourcePath": "D:\\Documents\\Programming\\VS Code\\Blockchain-Auth-Service\\contracts\\BlockAuth.sol",
  "compiler": {
    "name": "solc",
    "version": "0.5.16+commit.9c3226ce.Emscripten.clang"
  },
  "schemaVersion": "3.2.1",
  "updatedAt": "2020-07-07T11:22:07.104Z",
  "networkType": "ethereum",
  "devdoc": {
    "methods": {}
  },
  "userdoc": {
    "methods": {}
  }
}