{
  "contractName": "BlockAuthVerify",
  "abi": [
    {
      "inputs": [],
      "payable": false,
      "stateMutability": "nonpayable",
      "type": "constructor"
    },
    {
      "anonymous": false,
      "inputs": [
        {
          "indexed": false,
          "internalType": "address",
          "name": "from",
          "type": "address"
        },
        {
          "indexed": false,
          "internalType": "string",
          "name": "username",
          "type": "string"
        },
        {
          "indexed": false,
          "internalType": "bool",
          "name": "success",
          "type": "bool"
        }
      ],
      "name": "NewUserAdded",
      "type": "event"
    },
    {
      "anonymous": false,
      "inputs": [
        {
          "indexed": false,
          "internalType": "address",
          "name": "from",
          "type": "address"
        },
        {
          "indexed": false,
          "internalType": "string",
          "name": "username",
          "type": "string"
        },
        {
          "indexed": false,
          "internalType": "string",
          "name": "verificationType",
          "type": "string"
        },
        {
          "indexed": false,
          "internalType": "bool",
          "name": "success",
          "type": "bool"
        }
      ],
      "name": "NewVerification",
      "type": "event"
    },
    {
      "anonymous": false,
      "inputs": [
        {
          "indexed": false,
          "internalType": "address",
          "name": "from",
          "type": "address"
        },
        {
          "indexed": false,
          "internalType": "string",
          "name": "username",
          "type": "string"
        },
        {
          "indexed": false,
          "internalType": "bool",
          "name": "success",
          "type": "bool"
        }
      ],
      "name": "UserDataUpdated",
      "type": "event"
    },
    {
      "constant": false,
      "inputs": [],
      "name": "killBlockAuth",
      "outputs": [],
      "payable": false,
      "stateMutability": "nonpayable",
      "type": "function"
    },
    {
      "constant": false,
      "inputs": [
        {
          "internalType": "string",
          "name": "username",
          "type": "string"
        },
        {
          "internalType": "string",
          "name": "block_auth_url",
          "type": "string"
        },
        {
          "internalType": "string",
          "name": "public_key",
          "type": "string"
        }
      ],
      "name": "addNewUser",
      "outputs": [
        {
          "internalType": "bool",
          "name": "",
          "type": "bool"
        }
      ],
      "payable": false,
      "stateMutability": "nonpayable",
      "type": "function"
    },
    {
      "constant": true,
      "inputs": [
        {
          "internalType": "address",
          "name": "user_address",
          "type": "address"
        }
      ],
      "name": "getUsername",
      "outputs": [
        {
          "internalType": "string",
          "name": "",
          "type": "string"
        }
      ],
      "payable": false,
      "stateMutability": "view",
      "type": "function"
    },
    {
      "constant": true,
      "inputs": [
        {
          "internalType": "string",
          "name": "username",
          "type": "string"
        }
      ],
      "name": "getAddress",
      "outputs": [
        {
          "internalType": "address",
          "name": "",
          "type": "address"
        }
      ],
      "payable": false,
      "stateMutability": "view",
      "type": "function"
    },
    {
      "constant": true,
      "inputs": [
        {
          "internalType": "string",
          "name": "username",
          "type": "string"
        }
      ],
      "name": "getBlockAuthUrl",
      "outputs": [
        {
          "internalType": "string",
          "name": "",
          "type": "string"
        }
      ],
      "payable": false,
      "stateMutability": "view",
      "type": "function"
    },
    {
      "constant": true,
      "inputs": [
        {
          "internalType": "string",
          "name": "username",
          "type": "string"
        }
      ],
      "name": "getBlockAuthPublicKey",
      "outputs": [
        {
          "internalType": "string",
          "name": "",
          "type": "string"
        }
      ],
      "payable": false,
      "stateMutability": "view",
      "type": "function"
    },
    {
      "constant": false,
      "inputs": [
        {
          "internalType": "string",
          "name": "encryptedData",
          "type": "string"
        }
      ],
      "name": "setEncryptionData",
      "outputs": [
        {
          "internalType": "bool",
          "name": "",
          "type": "bool"
        }
      ],
      "payable": false,
      "stateMutability": "nonpayable",
      "type": "function"
    },
    {
      "constant": true,
      "inputs": [
        {
          "internalType": "string",
          "name": "username",
          "type": "string"
        }
      ],
      "name": "getEncryptedData",
      "outputs": [
        {
          "internalType": "string",
          "name": "",
          "type": "string"
        }
      ],
      "payable": false,
      "stateMutability": "view",
      "type": "function"
    }
  ],
  "bytecode": "0x608060405234801561001057600080fd5b50600080546001600160a01b03191633179055610f45806100326000396000f3fe608060405234801561001057600080fd5b50600436106100885760003560e01c80639c1ff1af1161005b5780639c1ff1af14610416578063bf40fac1146104ba578063cbf149621461057a578063ce43c0321461061e57610088565b806313937b4f1461008d57806349e4622c146100975780634f363d9e146101b05780639a12b1c014610254575b600080fd5b610095610644565b005b61013b600480360360208110156100ad57600080fd5b810190602081018135600160201b8111156100c757600080fd5b8201836020820111156100d957600080fd5b803590602001918460018302840111600160201b831117156100fa57600080fd5b91908080601f016020809104026020016040519081016040528093929190818152602001838380828437600092019190915250929550610667945050505050565b6040805160208082528351818301528351919283929083019185019080838360005b8381101561017557818101518382015260200161015d565b50505050905090810190601f1680156101a25780820380516001836020036101000a031916815260200191505b509250505060405180910390f35b61013b600480360360208110156101c657600080fd5b810190602081018135600160201b8111156101e057600080fd5b8201836020820111156101f257600080fd5b803590602001918460018302840111600160201b8311171561021357600080fd5b91908080601f01602080910402602001604051908101604052809392919081815260200183838082843760009201919091525092955061075c945050505050565b6104026004803603606081101561026a57600080fd5b810190602081018135600160201b81111561028457600080fd5b82018360208201111561029657600080fd5b803590602001918460018302840111600160201b831117156102b757600080fd5b91908080601f0160208091040260200160405190810160405280939291908181526020018383808284376000920191909152509295949360208101935035915050600160201b81111561030957600080fd5b82018360208201111561031b57600080fd5b803590602001918460018302840111600160201b8311171561033c57600080fd5b91908080601f0160208091040260200160405190810160405280939291908181526020018383808284376000920191909152509295949360208101935035915050600160201b81111561038e57600080fd5b8201836020820111156103a057600080fd5b803590602001918460018302840111600160201b831117156103c157600080fd5b91908080601f01602080910402602001604051908101604052809392919081815260200183838082843760009201919091525092955061078f945050505050565b604080519115158252519081900360200190f35b61013b6004803603602081101561042c57600080fd5b810190602081018135600160201b81111561044657600080fd5b82018360208201111561045857600080fd5b803590602001918460018302840111600160201b8311171561047957600080fd5b91908080601f016020809104026020016040519081016040528093929190818152602001838380828437600092019190915250929550610b20945050505050565b61055e600480360360208110156104d057600080fd5b810190602081018135600160201b8111156104ea57600080fd5b8201836020820111156104fc57600080fd5b803590602001918460018302840111600160201b8311171561051d57600080fd5b91908080601f016020809104026020016040519081016040528093929190818152602001838380828437600092019190915250929550610b53945050505050565b604080516001600160a01b039092168252519081900360200190f35b6104026004803603602081101561059057600080fd5b810190602081018135600160201b8111156105aa57600080fd5b8201836020820111156105bc57600080fd5b803590602001918460018302840111600160201b831117156105dd57600080fd5b91908080601f016020809104026020016040519081016040528093929190818152602001838380828437600092019190915250929550610bc4945050505050565b61013b6004803603602081101561063457600080fd5b50356001600160a01b0316610e02565b6000546001600160a01b0316331415610665576000546001600160a01b0316ff5b565b60606005826040518082805190602001908083835b6020831061069b5780518252601f19909201916020918201910161067c565b518151600019602094850361010090810a820192831692199390931691909117909252949092019687526040805197889003820188208054601f600260018316159098029095011695909504928301829004820288018201905281875292945092505083018282801561074f5780601f106107245761010080835404028352916020019161074f565b820191906000526020600020905b81548152906001019060200180831161073257829003601f168201915b505050505090505b919050565b60606003826040518082805190602001908083836020831061069b5780518252601f19909201916020918201910161067c565b60006002846040518082805190602001908083835b602083106107c35780518252601f1990920191602091820191016107a4565b51815160209384036101000a60001901801990921691161790529201948552506040519384900301909220546001600160a01b031615159150610a55905057336000908152600160209081526040909120855161082292870190610e75565b50336002856040518082805190602001908083835b602083106108565780518252601f199092019160209182019101610837565b51815160209384036101000a6000190180199092169116179052920194855250604051938490038101842080546001600160a01b0319166001600160a01b039690961695909517909455505085518592600392889290918291908401908083835b602083106108d65780518252601f1990920191602091820191016108b7565b51815160209384036101000a600019018019909216911617905292019485525060405193849003810190932084516109179591949190910192509050610e75565b50816004856040518082805190602001908083835b6020831061094b5780518252601f19909201916020918201910161092c565b51815160209384036101000a6000190180199092169116179052920194855250604051938490038101909320845161098c9591949190910192509050610e75565b507fcc74ffc04fd3b512adb31019610290c2855f12d2437a8f2c7d6151cf17ad11fa3385600160405180846001600160a01b03166001600160a01b031681526020018060200183151515158152602001828103825284818151815260200191508051906020019080838360005b83811015610a115781810151838201526020016109f9565b50505050905090810190601f168015610a3e5780820380516001836020036101000a031916815260200191505b5094505050505060405180910390a1506001610b19565b7fcc74ffc04fd3b512adb31019610290c2855f12d2437a8f2c7d6151cf17ad11fa3385600060405180846001600160a01b03166001600160a01b031681526020018060200183151515158152602001828103825284818151815260200191508051906020019080838360005b83811015610ad9578181015183820152602001610ac1565b50505050905090810190601f168015610b065780820380516001836020036101000a031916815260200191505b5094505050505060405180910390a15060005b9392505050565b60606004826040518082805190602001908083836020831061069b5780518252601f19909201916020918201910161067c565b60006002826040518082805190602001908083835b60208310610b875780518252601f199092019160209182019101610b68565b51815160209384036101000a60001901801990921691161790529201948552506040519384900301909220546001600160a01b0316949350505050565b6040805160008082526020808301808552835190203360601b848601528451603481860301815260549094019094528251920191909120909114610d4157816005610c0e33610e02565b6040518082805190602001908083835b60208310610c3d5780518252601f199092019160209182019101610c1e565b51815160209384036101000a60001901801990921691161790529201948552506040519384900381019093208451610c7e9591949190910192509050610e75565b507f47b88310d77b1e32701acf15a814aa72b3d26c3092e4072da3728de57e7e73fd33610caa33610e02565b604080516001600160a01b03841681526001918101829052606060208083018281528551928401929092528451608084019186019080838360005b83811015610cfd578181015183820152602001610ce5565b50505050905090810190601f168015610d2a5780820380516001836020036101000a031916815260200191505b5094505050505060405180910390a1506001610757565b7f47b88310d77b1e32701acf15a814aa72b3d26c3092e4072da3728de57e7e73fd33610d6c33610e02565b604080516001600160a01b038416815260009181018290526060602080830182815285519284019290925284516080840191860190808383885b83811015610dbe578181015183820152602001610da6565b50505050905090810190601f168015610deb5780820380516001836020036101000a031916815260200191505b5094505050505060405180910390a1506000919050565b6001600160a01b03811660009081526001602081815260409283902080548451600294821615610100026000190190911693909304601f8101839004830284018301909452838352606093909183018282801561074f5780601f106107245761010080835404028352916020019161074f565b828054600181600116156101000203166002900490600052602060002090601f016020900481019282601f10610eb657805160ff1916838001178555610ee3565b82800160010185558215610ee3579182015b82811115610ee3578251825591602001919060010190610ec8565b50610eef929150610ef3565b5090565b610f0d91905b80821115610eef5760008155600101610ef9565b9056fea265627a7a72315820ce6208435c4daffca4e168f0e4f5d75bf17c6676cab763ec80a96b0c5bdafeb064736f6c63430005100032",
  "source": "pragma solidity ^0.5.16;\r\n\r\ncontract BlockAuthVerify {\r\n\r\n    address payable owner;\r\n    mapping ( address => string ) usernames;\r\n    mapping ( string => address ) reverse_usernames;\r\n    mapping ( string => string ) block_auth_urls;\r\n    mapping ( string => string ) public_keys;\r\n    mapping ( string => string ) data;\r\n\r\n    event NewUserAdded(address from, string username, bool success);\r\n    event NewVerification(address from, string username, string verificationType, bool success);\r\n    event UserDataUpdated(address from, string username, bool success);\r\n\r\n    constructor() public {\r\n\r\n        owner = msg.sender;\r\n    }\r\n\r\n    function killBlockAuth() public {\r\n\r\n        if(msg.sender == owner){\r\n            selfdestruct(owner);\r\n        }\r\n    }\r\n\r\n    function addNewUser(string memory username, string memory block_auth_url, string memory public_key) public returns (bool) {\r\n\r\n        if (reverse_usernames[username] == 0x0000000000000000000000000000000000000000){\r\n\r\n            usernames[msg.sender] = username;\r\n            reverse_usernames[username] = msg.sender;\r\n            block_auth_urls[username] = block_auth_url;\r\n            public_keys[username] = public_key;\r\n\r\n            emit NewUserAdded(msg.sender, username, true);\r\n            return true;\r\n        }\r\n\r\n        emit NewUserAdded(msg.sender, username, false);\r\n        return false;\r\n    }\r\n\r\n    function getUsername(address user_address) public view returns (string memory) {\r\n        return usernames[user_address];\r\n    }\r\n\r\n    function getAddress(string memory username) public view returns (address) {\r\n        return reverse_usernames[username];\r\n    }\r\n\r\n    function getBlockAuthUrl(string memory username) public view returns (string memory) {\r\n        return block_auth_urls[username];\r\n    }\r\n\r\n    function getBlockAuthPublicKey(string memory username) public view returns (string memory) {\r\n        return public_keys[username];\r\n    }\r\n\r\n    function setEncryptionData(string memory encryptedData) public returns (bool) {\r\n        if(keccak256(abi.encodePacked(msg.sender)) != keccak256(abi.encodePacked(\"\"))){\r\n            data[getUsername(msg.sender)] = encryptedData;\r\n            emit UserDataUpdated(msg.sender, getUsername(msg.sender), true);\r\n            return true;\r\n        }\r\n\r\n        emit UserDataUpdated(msg.sender, getUsername(msg.sender), false);\r\n        return false;\r\n    }\r\n\r\n    function getEncryptedData(string memory username) public view returns (string memory) {\r\n        return data[username];\r\n    }\r\n\r\n\r\n}",
  "sourcePath": "D:\\Documents\\Programming\\VS Code\\2020-117\\security\\Blockchain-Auth-Service\\contracts\\BlockAuthVerify.sol",
  "compiler": {
    "name": "solc",
    "version": "0.5.16+commit.9c3226ce.Emscripten.clang"
  },
  "schemaVersion": "3.2.1",
  "updatedAt": "2020-07-11T12:04:50.798Z",
  "devdoc": {
    "methods": {}
  },
  "userdoc": {
    "methods": {}
  }
}